:020000040800F2
:10000000E80F00203D01000861100008910F000872
:1000100000000000000000000000000000000000E0
:100020000000000000000000000000006310000855
:100030000000000000000000FB0000086D10000838
:100040004F010008000000004F0100084F010008A8
:100050004F0100084F0100084F0100084F01000840
:10006000000000004F0100084F0100084F01000888
:100070004F0100084F0100084F0100080000000078
:100080004F01000800000000000000004F010008C0
:10009000000000004F0100084F0100084F01000858
:1000A000000000004F010008000000004F010008A0
:1000B0000348854600F0DCF8004800479D11000821
:1000C000E80F0020084B19680868203080F3098881
:1000D000022080F31488BFF36F8F3FBCAE4608BC8C
:1000E00004BC62B61847000034000020EFF3108013
:1000F00072B6704780F310887047EFF309800E4B9B
:100100001A6820381060F0C044464D4656465F4697
:10011000F0C008B572B601F05DFB62B60CBC1168A8
:1001200008681030F0C8A046A946B246BB4680F326
:1001300009882038F0C81847340000200448804758
:1001400004480047FEE7FEE7FEE7FEE7FEE7FEE7BE
:10015000D9100008B100000830B50B460146002058
:100160002022012409E00D46D5409D4205D31D46BD
:100170009540491B2546954040191546521E002DB5
:10018000F1DC30BDF0B51FB40646002082B0054654
:100190004024019100901BE0019922460F46304611
:1001A00000F020F8049A059B801A994110D310465C
:1001B0001946224600F04BF8361A8F410197224625
:1001C00001200021009F00F042F838184D410090B6
:1001D0002046641E0028DFDC019B00982946324639
:1001E00007B0F0BD10B5202A04DB0846203AD04005
:1001F000002110BD0B46D340D0402024A21A9140CC
:100200000843194610BD03460B439B0703D009E082
:1002100008C9121F08C0042AFAD203E00B78037041
:10022000401C491C521EF9D27047D2B201E0027044
:10023000401C491EFBD270470022F6E710B513465A
:100240000A4604461946FFF7F0FF204610BD10B5D8
:10025000202A04DB0146203A9140002010BD914045
:1002600020239C1A0346E3401943904010BD000030
:10027000064C0125064E05E0E36807CC2B430C3CF9
:1002800098471034B442F7D3FFF716FFF81A000866
:10029000181B000800B5002200F002F800BD0000A5
:1002A00030B50E4B05465C7A0120012C15D8587AE2
:1002B00000241C54587A8000C01845605D7A1846A6
:1002C00008302A54587A421C5A72303008703A204A
:1002D00048702F208870CC70002030BDEC020020C8
:1002E000F8B50025044620340095227D012A39D036
:1002F0000122227503689E68760767D4384F4E68DE
:10030000BE424DD09E6A0F78BA4016439E620123CA
:10031000C26A1B079A421FD0012A1DD0022A1BD095
:10032000032A19D0042A17D0052A15D0062A13D07B
:10033000072A11D002688B6856697607760FB34298
:100340000AD05369DB08DB005361006842690B7A0D
:100350005B075B0F1A4342610A68102A04D0112A16
:1003600002D038E00220F8BD1E488368102A07D06A
:1003700001229205134383600868102803D02AE005
:100380000122D205F6E7194817490068FFF7E4FE95
:100390000A21484300E0401E00900028FBD11AE0EB
:1003A000986A0E78B240904398620968102901D08B
:1003B000112910D10B488268102904D00121890528
:1003C0008A43826007E00121C905F9E7816B202299
:1003D000114381630125002020752846F8BD0000E7
:1003E000011000000027014040420F0030000020B3
:1003F000F8B500250446002805D0A06B2646203617
:10040000002802D007E00120F8BD0020E06330752D
:10041000204600F0A7F8A06B1022104270D120688F
:10042000816849076CD4A16B1301994302231943D6
:10043000A16381688907890F012905D10168C9076E
:100440000FD1C16809040CD4C16818239943A3686B
:100450001943C160206801696368890089081943EC
:1004600001612068C1683D4B1940C160207E617EFA
:100470008003C9030843A17E4B031843A36A012BE1
:1004800002D001231B0300E000231843E368184354
:100490002369022B09D0002318433379E67E5B00E1
:1004A00018430123012E02D00AE00423F4E70029B7
:1004B00027D0A16B20263143A163E16B1943E1638F
:1004C000E1690E46FF3EC23E02D0266A3143084330
:1004D0002168CE680643CE600126E16A3607B14244
:1004E00013D0012911D002290FD003290DD00429DE
:1004F0000BD0052909D0062907D0072905D010E01F
:1005000028E0012109040843DAE721684E69F6086A
:10051000F6004E6121684E69A78D7F077F0F3E432D
:100520004E612168C9680E4E3140814207D10020DA
:10053000E063A06B80088000401CA06308E0A06B13
:10054000022188431043A063E06B1843E063012558
:100550002846F8BDA06B1043A063F8E71902FEFF20
:10056000E7FF3F8310B586B0044614216846FFF7C5
:1005700063FE10492068884219D10F4882694115ED
:100580000A43826182690A400592426909020A436C
:1005900042614069084005901C20009003200190B2
:1005A0000020029009206946C00600F007F806B056
:1005B00010BD00000024014000100240F8B50023E7
:1005C0008DE001249C40A44622407DD04C68022C42
:1005D00001D0122C0CD1DC08A40027183C6A5D075E
:1005E000ED0E0F26AE40B4430E69AE4026433E6288
:1005F00005685E000324B4400F79A543BF07BF0F11
:10060000B7402F4307604D68012D05D0022D03D060
:10061000112D01D0122D0ED18568CF68A543B740AA
:100620002F43876047686546AF430D79ED06ED0FB0
:100630009D403D434560C568A5438C68B4402C434C
:10064000C4604C68E40049D5284CA56901263543AF
:10065000A561A4699D0834400094254CAD002F1974
:10066000BC689D072E0F0F25B540AC430925ED064C
:10067000A84201D100250FE01E4DA84201D101255D
:100680000AE01D4DA84201D1022505E01B4DA842FC
:1006900001D1032500E00525B5402543BD60184C78
:1006A00025684E689543F60300D5154325606568B7
:1006B0004E689543B60300D515436560A5684E683E
:1006C0009543F60202D500E008E01543A560E56811
:1006D0004E689543B60200D51543E5605B1C0A6879
:1006E0001446DC4000D06CE7F8BD0000001002406A
:1006F000000001400004004800080048000C0048C9
:100700000004014001488068704700002400002078
:1007100070B5024640325378202B1CD11378012B40
:1007200019D00123137024245470046825689D4354
:100730002560046825681E03B543256004682568A4
:100740000D43256000680168194301602020507046
:100750000020107070BD022070BD70B5024640329E
:100760005378202B1BD11378012B18D0012414703F
:100770002423537003681D68A5431D6005682B681A
:100780000F263602B3430902194329600068016845
:1007900021430160202050700020107070BD0220A5
:1007A00070BD000070B5040006D02546403568785D
:1007B0000026002802D005E0012070BD2E702046E2
:1007C00000F04AF824206870206801684908490050
:1007D00001600F216068090688432168086121686B
:1007E0008A680120C00382438A60E1680129A16808
:1007F00008D021229202114322689160E168022907
:1008000002D005E00143F7E701212268C9025160E7
:1008100021684A680F4B1A434A602168CA688243BC
:10082000CA60616920690843A16909020843216817
:10083000C860216AE069084321680860206801688F
:100840000122114301606664202068702663AE7047
:10085000002070BD0080000210B586B0044614214F
:100860006846FFF7E9FC1249206888421ED1114C06
:100870006169012080040143616161690140059162
:100880000320800200901220012101900320029198
:100890000491039069460848FFF790FEE169012042
:1008A00040050143E161E1690140059106B010BDD9
:1008B00000540040001002400004004802488168D3
:1008C00002788918816070472400002010B506481E
:1008D0000168102211430160032000F007F800F0C6
:1008E00027F8002010BD00000020024070B504462B
:1008F0000D4D7D202978C000FFF72EFC01460B48E6
:100900000068FFF729FC00F02BFB002809D1042C1C
:1009100007D200222146401E00F022F800206C6021
:1009200070BD012070BD00002400002030000020B8
:1009300008B50A488169012211438161816911402A
:100940000091C26901040A43C261C06900220840E3
:1009500003210090481F00F003F808BD001002407A
:1009600010B500F0E9FB10BDF8B505460068354C40
:10097000C00352D5E0690026C00007D4E169200415
:100980000143E161E1690140012600912E480168BF
:10099000C90510D40168821511430160FFF7B2FE4A
:1009A000074604E0FFF7AEFEC01B642824D82648A3
:1009B0000068C005F6D5206A03273F02384020D0E2
:1009C0006968394081421CD0206A226AB8430121FB
:1009D00009040A432262226A8A4322622062C00713
:1009E0000FD0FFF78FFE009008E0FFF78BFE009915
:1009F000411A1648814201D90320F8BD206A8007B8
:100A0000F3D5206A6968B84308432062002E04D0F9
:100A1000E169012000078143E1612878C00705D022
:100A2000206BA9688008800008432063287880062E
:100A300005D5206B10218843E96808432063002016
:100A4000F8BD000000100240007000408813000054
:100A5000F8B50F46060059D03A4D2868C007C00FB8
:100A6000B84209D228684008400038432860286806
:100A7000C007C00FB84249D13068334C81070CD54C
:100A8000400704D560680721090208436060606878
:100A9000F0218843B168084360603078C00726D0F1
:100AA000706801280ED0216802280ED0890700291D
:100AB0002CDA61688908890001436160FFF722FE32
:100AC00000900DE021688903F1E78901EFE7FFF766
:100AD00019FE0099411A1D48814201D90320F8BD31
:100AE00060680C210840716889008842EFD128684D
:100AF000C007C00FB8420BD92868400840003843EF
:100B000028602868C007C00FB84201D00120F8BD96
:100B10003078400706D56068072109028843F168EC
:100B20000843606000F018F86168094A0906090F77
:100B3000515CC840074908600320FFF7D7FE00203A
:100B4000F8BD0000002002400010024088130000A1
:100B5000DC1A00083000002010B514A30FCB88B0B9
:100B60006C460FC415A30FCB0FC4184A51680C2054
:100B70000B4603401648042B16D0082B14D18B02C9
:100B80001B0F6C46E45CD26A04AB1207120F9A5C2E
:100B9000C90305D500231946FFF7F4FA214601E001
:100BA00020460C4900F0B0FA08B010BD020304055D
:100BB000060708090A0B0C0D0E0F101001020304A2
:100BC00005060708090A0B0C0D0E0F100010024055
:100BD00000127A0000093D00FEB5040070D02078B4
:100BE000DC4DC0074AD068680007800F012807D095
:100BF00068680007800F022809D16868C00306D51D
:100C0000286880033AD560680028E7D036E061683C
:100C1000012914D001208004002901D0052914D015
:100C20002A68012109048A432A60296881432960CE
:100C30006068002816D0FFF765FD06460EE02868BC
:100C40000121090408432860F2E72968014329606B
:100C5000F5E7FFF757FD801B64286ED828688003EE
:100C6000F7D50BE0FFF74EFD064604E0FFF74AFD1F
:100C7000801B6428F1D828688003F7D420780126E7
:100C8000800700283CDA68680007800F07D0686892
:100C90000007800F022809D16868C00306D42868BD
:100CA000800716D5E06801280AD112E0E068002824
:100CB000286816D030432860FFF724FD074605E07A
:100CC00043E1FFF71FFDC01B0228C6D82868800734
:100CD000F7D52868F82188432169C90008432860AE
:100CE0000EE0400840002860FFF70CFD074604E0D6
:100CF000FFF708FDC01B0228AFD828688007F7D48B
:100D00002078000722D5E0690028686A0ED03043B9
:100D10006862FFF7F7FC074604E0FFF7F3FCC01B2F
:100D200002289AD8686A8007F7D50FE0400840008B
:100D30006862FFF7E7FC074605E09DE0FFF7E2FC8D
:100D4000C01B022889D8686A8007F7D42078042756
:100D50004007002860DA00200190E869C00008D44C
:100D6000E969B8060143E961E969014001200091A0
:100D7000019079480168C90511D4016882151143B1
:100D80000160FFF7BFFC009005E0FFF7BBFC009996
:100D9000401A642870D870480068C005F5D5A0686E
:100DA00001280AD0002801D0052810D0286A400860
:100DB00040002862286AB84301E0286A304328626C
:100DC000A068002812D0FFF79DFC00900AE0286A76
:100DD00038432862F1E7FFF795FC0099411A5F4814
:100DE000814249D8286A8007F5D50DE0FFF78AFCD3
:100DF000009006E0FFF786FC0099411A57488142AF
:100E00003AD8286A8007F5D40198002804D0E96907
:100E1000012000078143E9612078C00635D560696B
:100E200001280CD0401D686B23D038436863686B81
:100E3000400840006863FFF765FC064622E0686BE7
:100E400038436863686B30436863FFF75BFC0646B2
:100E500004E0FFF757FC801B02285BD8686B800713
:100E6000F7D5686BF8218843A169C9000843686316
:100E70000BE0B8436863F4E74CE0FFF743FC801BEA
:100E8000022847D8686B8007F7D4206A00285ED014
:100E900069680907890F022942D00126360602280F
:100EA000286805D0B0432860FFF72CFC044633E0E7
:100EB000B0432860FFF726FC074604E0FFF722FC5A
:100EC000C01B022826D828688001F7D4E86AE16AA6
:100ED000000900010843E862616AA06A0843696882
:100EE0003D2212049143084368602868304328601B
:100EF000FFF708FC044604E0FFF704FC001B02288F
:100F000008D828688001F7D521E0FFF7FBFB001B1C
:100F1000022801D90320FEBD28688001F5D416E01F
:100F20000128F8D06868E96A01221204636A024065
:100F30009A420AD10907E26A090F914205D10F21AD
:100F400089040840A16A884201D00120FEBD00202A
:100F5000FEBD000000100240007000408813000039
:100F6000094910B5401E884201D9012010BD074C27
:100F700060610321081F00F0DFF80020A061072056
:100F80002061002010BD0000FFFFFF0000E000E036
:100F9000FEE700003EB50021194800910191029141
:100FA000164A4160026003468160012204240C332A
:100FB00016C3017641768176FF23C176C233C361C1
:100FC00003460162203319718262FFF711FA022091
:100FD0000090C00201900004029069460848FFF7A3
:100FE0007FF90320009069460548FFF779F96946C3
:100FF00003480094FFF774F93EBD0000002401404F
:101000008C00002010B504490448FFF743F9024959
:10101000491E087010BD00001D00002008000020BF
:1010200010B50D480B4901600C49416000218160F9
:101030000161416181610122C161C2600162FFF70A
:10104000B1FB00210448FFF763FB00210248FFF7D2
:1010500084FB10BD00540040CC0000200E0900208D
:1010600070477047012000F0CFF8FBE710B5FFF79D
:1010700025FC00F061FC012801D000F0FFFB10BD51
:1010800010B594B030216846FFF7D6F800240F94CD
:10109000122000900D9401201294039005900E945C
:1010A0001020109413940C940490069011940894BA
:1010B0006846FFF791FD07200C900D940E940021D7
:1010C0000F940CA8FFF7C4FC20201090139410A8D4
:1010D000FFF74AFC14B010BD704700000248012120
:1010E0000170007870470000040000200120704764
:1010F000002070470248012101700078704700000D
:101100000400002000207047F8B5040C8BB226467E
:1011100082B25E430D0C1046370C584336048019DA
:101120000021794116466E43370C36048019794107
:1011300026466E438919F8BD8307FF22DB0E9A40CD
:101140008907090E9940002808DB830809489B009D
:101150001B18186890430843186070470007000F79
:101160000838830804489B001B18D869904308433B
:10117000D861704700E400E000ED00E002E008C83C
:10118000121F08C1002AFAD170477047002001E001
:1011900001C1121F002AFBD17047000088B0FFF781
:1011A00095FBFFF76DFF12484269012149040A438C
:1011B000426142690A400792426949000A4342611A
:1011C000406908400790FFF7E5FEFFF729FFFFF7AA
:1011D00019FF1C2207496846FFF715F800216846E9
:1011E00000F01FF80449086000F016F8FEE7000060
:1011F00000100240C01A0008000000200146002034
:10120000842900D0C81C704710B5002800D10120E7
:1012100000F094FA002010BD10B500F0A7FA0020ED
:1012200010BD7FB50D46044641690820205E0029A7
:1012300011D0A16900290ED0FFF7E0FF6B46A2692B
:10124000616907C32B4622692168606800F051FB81
:10125000039004B070BDFFF7D1FF03A90191009086
:10126000208A2B4682B22168606800F019FB0128B1
:1012700001D00020EDE70398EBE70000F8B5134C30
:101280000F46666905462068001D00F0BFF9681C1E
:1012900007D1002F05D021680D48091D00F0FAF98B
:1012A000F8BD2068751945602168B54204D2A06870
:1012B000091D00F0D7F9F8BD6068091D00F0D2F9EA
:1012C000206B8542F7D22563F8BD00003400002072
:1012D000D4030020F8B5054600F0E8F9294C206950
:1012E000401C20612068284F002803D0E0690028B6
:1012F00027D02CE025602069012828D10026142061
:101300007043C01900F0A0F9761C072EF7D31E48D1
:101310008C3000F099F91C48A03000F095F91A487B
:10132000B43000F091F91848C83000F08DF9164833
:10133000DC3000F089F914488C3060601430A06013
:1013400005E02068E96AC06A884200D82560E06A42
:10135000401CE062E86AA169884200D9A0611421BA
:101360004843C019291D00F095F900F0ABF9E06978
:10137000002806D02068E96AC06A884201D200F0DD
:10138000D1F9F8BD34000020F802002010B5044661
:101390004030407C002805D0012806D0022807D024
:1013A00072B6FEE7206B00F09BF9204600F098F93A
:1013B00010BD000001210E48C902420705D0C01D22
:1013C000C0080B4AC000821A891A0A4A0023411831
:1013D00009C20839C908C900183A11604B600B608E
:1013E0000B1A0AC093600120C0075360D060704799
:1013F000E8030020800000200F4E104C3746C83F05
:1014000011E000F053F9F068C568281D00F0FEF8FF
:101410002069401E2061E068401EE06000F052F943
:101420002846FFF7B3FFE0680028EAD138680128B2
:10143000F9D900F077F9F6E7C00300203400002066
:10144000FFB581B00C9C9000236B001F1818C608D4
:101450000A9DF600700701D072B6FEE723180A5CF9
:1014600020331A750A5C002A02D0401C1028F5D3DC
:101470002046403000270090C770072D00D3062576
:10148000E562A764201D656400F0E9F82046183085
:1014900000F0E5F824610720401B6462A061E76466
:1014A000009807743046049A019900F09FF8206074
:1014B0000B98002800D0046005B0F0BD30B511498C
:1014C00000E011460A688242FBD34B685C188442F4
:1014D00003D1406818184860084643681C189442B5
:1014E00009D1084C103C2468A24209D052689A18CD
:1014F00042600A6812680260814200D0086030BD14
:101500000460F9E780000020064841680968002966
:1015100005D04168C968C9684968016370470021FE
:10152000C943FAE73400002003480068401C72B643
:1015300000D0FEE7FEE7000088000020F8B5054671
:10154000002700F03FF9284E3068002801D1FFF74E
:1015500031FFF06805423FD1002D3DD008356807C6
:1015600008D06807400F0821081A4519680701D0FC
:1015700072B6FEE7002D2FD0706885422CD81A482D
:10158000103001460C6801E020460C466168A94213
:1015900002D221680029F7D131688C421CD007683B
:1015A0002168016060680837411B102908D960195B
:1015B000420701D072B6FEE741606560FFF77EFF2B
:1015C00061687068401A7060B268904200D2B06082
:1015D000F0680143002003C400F01CFA780701D032
:1015E00072B6FEE73846F8BD7000002010B5012441
:1015F000031F24061C601B1F1960191F024B0B6080
:10160000143940380A6010BD291500084368826803
:1016100001699A60836842685A604A68824201D1CF
:1016200082684A60002202610868401E08600868FB
:1016300070470000034B0360184654300860602078
:1016400010607047180100200146083100224160F7
:10165000D243C160826001610021016070470021B6
:101660000161704730B50B685A1C02D0024608323F
:1016700002E0026904E02246546825689D42FAD9D6
:1016800053684B6099608A60516008610168491C29
:10169000016030BD42684A6093688B60936859600E
:1016A000916008610168491C0160704772B6044886
:1016B0000168491C0160BFF34F8FBFF36F8F704704
:1016C0008800002005490868002804D0401E0860F2
:1016D00000D162B6704772B6FEE7000088000020B5
:1016E00070B500281AD004460D4D083C6068E968C2
:1016F000084201D172B6FEE72268002A01D072B614
:10170000FEE78843606000F05DF860686968401833
:1017100068602046FFF7D2FE00F07CF970BD000043
:10172000700000200120044900074860BFF34F8F7C
:10173000BFF36F8F7047000000ED00E010B50200AE
:101740000FD00948806B002801D072B6FEE700F088
:1017500039F800211046FFF791FD00F05BF90028F1
:1017600001D1FFF7DFFF10BD3400002010B586B0B7
:101770000024039405AA04A903A80494FFF75AFFC0
:1017800004990398009401910290002309A10B4849
:10179000059A00F0AEF80A490028486308D072B6EE
:1017A0000020C04308630120C8614C6100F03EF88E
:1017B00006B010BD49444C4500000000F913000874
:1017C000340000200248816B491C8163704700008F
:1017D0003400002010B51348816B002902D001218C
:1017E000416210BD0021416281690F4A02E0002977
:1017F00015D0491E14234B43D358002BF7D0142384
:101800004B439A18536814465B6808345360A342EC
:1018100001D15B685360DA680260816110BD72B605
:10182000FEE7000034000020F802002070B50F48E9
:10183000016AFF22120411430162016A120211437C
:1018400001620B4C00252561A5610A487D21C90074
:101850000068FEF781FC401E606107202061064899
:101860000560FEF72FFC002070BD000000ED00E0D9
:1018700000E000E0300000208800002010B5FEF7F6
:1018800035FC044600F068F8002803D00120034925
:10189000000748602046FEF72DFC10BD00ED00E07B
:1018A000FFB585B0164690000F9FFFF747FE050075
:1018B0001CD05420FFF742FE040014D00020512118
:1018C000256308550E9900910390019702943246C2
:1018D000089B06990598FFF7B3FD2046FFF7FAFC31
:1018E000012009B0F0BD2846FFF7FAFE0020C043F2
:1018F000F7E7F0B585B007460B9D0C9C0A98002DC4
:1019000015D0002C15D054262563022551263555B7
:10191000002504AE00900196039502943846FFF727
:101920008FFD2046FFF7D6FC049805B0F0BD72B6D7
:10193000FEE772B6FEE700000648C169002904D040
:10194000806B002803D000207047012070470220E0
:101950007047000034000020F8B52C4C0027A06B25
:10196000002808D0206A401C2062606A002800D04D
:1019700001273846F8BD6669761C66610ED160683D
:101980000068002801D072B6FEE76068A168616057
:10199000A060A06A401CA062FFF7B6FD206B8642E3
:1019A0000AD360680068002810D06068C068C56805
:1019B000686886420DD2206320681421C06A4843BB
:1019C000134908580128D0D90127CEE70020C04389
:1019D000F1E7281DFFF71AFEA86A002803D0284661
:1019E0001830FFF713FEE86AA169884200D9A061A8
:1019F0001421484306494018291DFFF74BFEE86AA9
:101A00002168C96A8842CCD30127CAE73400002084
:101A1000F8020020F8B5284C0025A06B2E460028BF
:101A200008D0FFF743FEA06B401EA063A06B002808
:101A300002D03DE072B6FEE72169204F00291DD19A
:101A400036E0F868C56828461830FFF7DFFD281D26
:101A5000FFF7DCFDE86AA169884200D9A061142182
:101A600048431649B4394018291DFFF713FEE86AA8
:101A70002168C96A884201D3012060623868002861
:101A8000DFD1002D01D0FFF73FFD256A002D09D0E1
:101A90000127FFF761FF002800D067626D1EF8D1B3
:101AA00000202062606A002802D00126FFF73AFE7B
:101AB000FFF708FE3046F8BD34000020AC030020DC
:101AC000EC1A00086510000800000000000000008B
:101AD00060000000000000000000000000000000A6
:101AE000000000000102030406070809646566613E
:101AF000756C745461736B00181B000800000020A3
:101B00008C0000007C110008A41B00088C00002041
:101B10005C0F00008C1100080000000001000000B4
:101B2000DD100008F5100008F1100008051100088C
:101B3000ED1000080000000000000000010000009F
:101B4000040000000000000000127A000000000005
:101B50000000000000000000000000000000000085
:101B60000000000000000000000000000000000075
:101B70000000000000000000000000000000000065
:101B80000000000000000000000000000000000055
:101B90000000000000000000000000000000000045
:041BA000AAAAAAAA99
:04000005080000B13E
:00000001FF
